{
    "_format": "hh-sol-artifact-1",
    "contractName": "RentalAgreement",
    "sourceName": "contracts/rentalAgreement.sol",
    "abi": [
        {
            "inputs": [
                {
                    "internalType": "address",
                    "name": "_tenant",
                    "type": "address"
                },
                {
                    "internalType": "uint256",
                    "name": "_rentAmount",
                    "type": "uint256"
                },
                {
                    "internalType": "uint256",
                    "name": "_dueDate",
                    "type": "uint256"
                },
                {
                    "internalType": "uint256",
                    "name": "_lateFee",
                    "type": "uint256"
                }
            ],
            "stateMutability": "nonpayable",
            "type": "constructor"
        },
        {
            "anonymous": false,
            "inputs": [
                {
                    "indexed": true,
                    "internalType": "address",
                    "name": "tenant",
                    "type": "address"
                },
                {
                    "indexed": false,
                    "internalType": "uint256",
                    "name": "amount",
                    "type": "uint256"
                },
                {
                    "indexed": false,
                    "internalType": "uint256",
                    "name": "date",
                    "type": "uint256"
                }
            ],
            "name": "LateFeePaid",
            "type": "event"
        },
        {
            "anonymous": false,
            "inputs": [
                {
                    "indexed": true,
                    "internalType": "address",
                    "name": "tenant",
                    "type": "address"
                },
                {
                    "indexed": false,
                    "internalType": "uint256",
                    "name": "amount",
                    "type": "uint256"
                },
                {
                    "indexed": false,
                    "internalType": "uint256",
                    "name": "date",
                    "type": "uint256"
                }
            ],
            "name": "RentPaid",
            "type": "event"
        },
        {
            "inputs": [],
            "name": "dueDate",
            "outputs": [
                {
                    "internalType": "uint256",
                    "name": "",
                    "type": "uint256"
                }
            ],
            "stateMutability": "view",
            "type": "function"
        },
        {
            "inputs": [],
            "name": "landlord",
            "outputs": [
                {
                    "internalType": "address",
                    "name": "",
                    "type": "address"
                }
            ],
            "stateMutability": "view",
            "type": "function"
        },
        {
            "inputs": [],
            "name": "lateFee",
            "outputs": [
                {
                    "internalType": "uint256",
                    "name": "",
                    "type": "uint256"
                }
            ],
            "stateMutability": "view",
            "type": "function"
        },
        {
            "inputs": [],
            "name": "payRent",
            "outputs": [],
            "stateMutability": "payable",
            "type": "function"
        },
        {
            "inputs": [],
            "name": "payRentWithLateFee",
            "outputs": [],
            "stateMutability": "payable",
            "type": "function"
        },
        {
            "inputs": [],
            "name": "rentAmount",
            "outputs": [
                {
                    "internalType": "uint256",
                    "name": "",
                    "type": "uint256"
                }
            ],
            "stateMutability": "view",
            "type": "function"
        },
        {
            "inputs": [],
            "name": "rentPaid",
            "outputs": [
                {
                    "internalType": "bool",
                    "name": "",
                    "type": "bool"
                }
            ],
            "stateMutability": "view",
            "type": "function"
        },
        {
            "inputs": [
                {
                    "internalType": "uint256",
                    "name": "_newDueDate",
                    "type": "uint256"
                }
            ],
            "name": "resetRentStatus",
            "outputs": [],
            "stateMutability": "nonpayable",
            "type": "function"
        },
        {
            "inputs": [],
            "name": "tenant",
            "outputs": [
                {
                    "internalType": "address",
                    "name": "",
                    "type": "address"
                }
            ],
            "stateMutability": "view",
            "type": "function"
        }
    ],
    "bytecode": "0x60806040523480156200001157600080fd5b5060405162000dde38038062000dde833981810160405281019062000037919062000197565b336000806101000a81548173ffffffffffffffffffffffffffffffffffffffff021916908373ffffffffffffffffffffffffffffffffffffffff16021790555083600160006101000a81548173ffffffffffffffffffffffffffffffffffffffff021916908373ffffffffffffffffffffffffffffffffffffffff1602179055508260028190555081600381905550806004819055506000600560006101000a81548160ff0219169083151502179055505050505062000209565b600080fd5b600073ffffffffffffffffffffffffffffffffffffffff82169050919050565b60006200012482620000f7565b9050919050565b620001368162000117565b81146200014257600080fd5b50565b60008151905062000156816200012b565b92915050565b6000819050919050565b62000171816200015c565b81146200017d57600080fd5b50565b600081519050620001918162000166565b92915050565b60008060008060808587031215620001b457620001b3620000f2565b5b6000620001c48782880162000145565b9450506020620001d78782880162000180565b9350506040620001ea8782880162000180565b9250506060620001fd8782880162000180565b91505092959194509250565b610bc580620002196000396000f3fe6080604052600436106100865760003560e01c8063a709c4fe11610059578063a709c4fe14610135578063adf077911461013f578063dc1997ea1461016a578063e9d5201314610195578063f8ef1e131461019f57610086565b80633f4de62f1461008b578063786716fe146100b65780637f025566146100e157806399237d581461010c575b600080fd5b34801561009757600080fd5b506100a06101ca565b6040516100ad91906106ed565b60405180910390f35b3480156100c257600080fd5b506100cb6101d0565b6040516100d891906106ed565b60405180910390f35b3480156100ed57600080fd5b506100f66101d6565b6040516101039190610723565b60405180910390f35b34801561011857600080fd5b50610133600480360381019061012e919061076f565b6101e9565b005b61013d61029c565b005b34801561014b57600080fd5b5061015461048a565b60405161016191906107dd565b60405180910390f35b34801561017657600080fd5b5061017f6104b0565b60405161018c91906107dd565b60405180910390f35b61019d6104d4565b005b3480156101ab57600080fd5b506101b46106ce565b6040516101c191906106ed565b60405180910390f35b60045481565b60035481565b600560009054906101000a900460ff1681565b60008054906101000a900473ffffffffffffffffffffffffffffffffffffffff1673ffffffffffffffffffffffffffffffffffffffff163373ffffffffffffffffffffffffffffffffffffffff1614610277576040517f08c379a000000000000000000000000000000000000000000000000000000000815260040161026e9061087b565b60405180910390fd5b806003819055506000600560006101000a81548160ff02191690831515021790555050565b600160009054906101000a900473ffffffffffffffffffffffffffffffffffffffff1673ffffffffffffffffffffffffffffffffffffffff163373ffffffffffffffffffffffffffffffffffffffff161461032c576040517f08c379a00000000000000000000000000000000000000000000000000000000081526004016103239061090d565b60405180910390fd5b600254341015610371576040517f08c379a000000000000000000000000000000000000000000000000000000000815260040161036890610979565b60405180910390fd5b6003544211156103b6576040517f08c379a00000000000000000000000000000000000000000000000000000000081526004016103ad906109e5565b60405180910390fd5b6001600560006101000a81548160ff02191690831515021790555060008054906101000a900473ffffffffffffffffffffffffffffffffffffffff1673ffffffffffffffffffffffffffffffffffffffff166108fc349081150290604051600060405180830381858888f19350505050158015610437573d6000803e3d6000fd5b503373ffffffffffffffffffffffffffffffffffffffff167f33d9ffd7947b17c37c9905165c01183282058f1cb2252c9be395887d078572ad3442604051610480929190610a05565b60405180910390a2565b600160009054906101000a900473ffffffffffffffffffffffffffffffffffffffff1681565b60008054906101000a900473ffffffffffffffffffffffffffffffffffffffff1681565b600160009054906101000a900473ffffffffffffffffffffffffffffffffffffffff1673ffffffffffffffffffffffffffffffffffffffff163373ffffffffffffffffffffffffffffffffffffffff1614610564576040517f08c379a000000000000000000000000000000000000000000000000000000000815260040161055b9061090d565b60405180910390fd5b60035442116105a8576040517f08c379a000000000000000000000000000000000000000000000000000000000815260040161059f90610a7a565b60405180910390fd5b6004546002546105b89190610ac9565b3410156105fa576040517f08c379a00000000000000000000000000000000000000000000000000000000081526004016105f190610b6f565b60405180910390fd5b6001600560006101000a81548160ff02191690831515021790555060008054906101000a900473ffffffffffffffffffffffffffffffffffffffff1673ffffffffffffffffffffffffffffffffffffffff166108fc349081150290604051600060405180830381858888f1935050505015801561067b573d6000803e3d6000fd5b503373ffffffffffffffffffffffffffffffffffffffff167f56f06a64f973c521ee84b2a314efbe946418783999ab36a4225ca9c5c43bc5be34426040516106c4929190610a05565b60405180910390a2565b60025481565b6000819050919050565b6106e7816106d4565b82525050565b600060208201905061070260008301846106de565b92915050565b60008115159050919050565b61071d81610708565b82525050565b60006020820190506107386000830184610714565b92915050565b600080fd5b61074c816106d4565b811461075757600080fd5b50565b60008135905061076981610743565b92915050565b6000602082840312156107855761078461073e565b5b60006107938482850161075a565b91505092915050565b600073ffffffffffffffffffffffffffffffffffffffff82169050919050565b60006107c78261079c565b9050919050565b6107d7816107bc565b82525050565b60006020820190506107f260008301846107ce565b92915050565b600082825260208201905092915050565b7f4f6e6c79206c616e646c6f72642063616e2063616c6c20746869732066756e6360008201527f74696f6e00000000000000000000000000000000000000000000000000000000602082015250565b60006108656024836107f8565b915061087082610809565b604082019050919050565b6000602082019050818103600083015261089481610858565b9050919050565b7f4f6e6c792074656e616e742063616e2063616c6c20746869732066756e63746960008201527f6f6e000000000000000000000000000000000000000000000000000000000000602082015250565b60006108f76022836107f8565b91506109028261089b565b604082019050919050565b60006020820190508181036000830152610926816108ea565b9050919050565b7f496e73756666696369656e742072656e7420616d6f756e740000000000000000600082015250565b60006109636018836107f8565b915061096e8261092d565b602082019050919050565b6000602082019050818103600083015261099281610956565b9050919050565b7f52656e7420697320706173742064756500000000000000000000000000000000600082015250565b60006109cf6010836107f8565b91506109da82610999565b602082019050919050565b600060208201905081810360008301526109fe816109c2565b9050919050565b6000604082019050610a1a60008301856106de565b610a2760208301846106de565b9392505050565b7f52656e74206973206e6f74207061737420647565207965740000000000000000600082015250565b6000610a646018836107f8565b9150610a6f82610a2e565b602082019050919050565b60006020820190508181036000830152610a9381610a57565b9050919050565b7f4e487b7100000000000000000000000000000000000000000000000000000000600052601160045260246000fd5b6000610ad4826106d4565b9150610adf836106d4565b9250828201905080821115610af757610af6610a9a565b5b92915050565b7f496e73756666696369656e7420616d6f756e7420696e636c7564696e67206c6160008201527f7465206665650000000000000000000000000000000000000000000000000000602082015250565b6000610b596026836107f8565b9150610b6482610afd565b604082019050919050565b60006020820190508181036000830152610b8881610b4c565b905091905056fea2646970667358221220c22487b4c3ac4a909441f21881522a3d0a0321798595a29eb49266f011ce113a64736f6c63430008140033",
    "linkReferences": {},
    "deployedLinkReferences": {}
}